{
  "_format": "hh-sol-artifact-1",
  "contractName": "CarbonCredit",
  "sourceName": "contracts/CarbonCredit.sol",
  "abi": [
    {
      "inputs": [
        {
          "internalType": "address",
          "name": "initialOwner",
          "type": "address"
        }
      ],
      "stateMutability": "nonpayable",
      "type": "constructor"
    },
    {
      "inputs": [
        {
          "internalType": "address",
          "name": "sender",
          "type": "address"
        },
        {
          "internalType": "uint256",
          "name": "tokenId",
          "type": "uint256"
        },
        {
          "internalType": "address",
          "name": "owner",
          "type": "address"
        }
      ],
      "name": "ERC721IncorrectOwner",
      "type": "error"
    },
    {
      "inputs": [
        {
          "internalType": "address",
          "name": "operator",
          "type": "address"
        },
        {
          "internalType": "uint256",
          "name": "tokenId",
          "type": "uint256"
        }
      ],
      "name": "ERC721InsufficientApproval",
      "type": "error"
    },
    {
      "inputs": [
        {
          "internalType": "address",
          "name": "approver",
          "type": "address"
        }
      ],
      "name": "ERC721InvalidApprover",
      "type": "error"
    },
    {
      "inputs": [
        {
          "internalType": "address",
          "name": "operator",
          "type": "address"
        }
      ],
      "name": "ERC721InvalidOperator",
      "type": "error"
    },
    {
      "inputs": [
        {
          "internalType": "address",
          "name": "owner",
          "type": "address"
        }
      ],
      "name": "ERC721InvalidOwner",
      "type": "error"
    },
    {
      "inputs": [
        {
          "internalType": "address",
          "name": "receiver",
          "type": "address"
        }
      ],
      "name": "ERC721InvalidReceiver",
      "type": "error"
    },
    {
      "inputs": [
        {
          "internalType": "address",
          "name": "sender",
          "type": "address"
        }
      ],
      "name": "ERC721InvalidSender",
      "type": "error"
    },
    {
      "inputs": [
        {
          "internalType": "uint256",
          "name": "tokenId",
          "type": "uint256"
        }
      ],
      "name": "ERC721NonexistentToken",
      "type": "error"
    },
    {
      "inputs": [
        {
          "internalType": "address",
          "name": "owner",
          "type": "address"
        }
      ],
      "name": "OwnableInvalidOwner",
      "type": "error"
    },
    {
      "inputs": [
        {
          "internalType": "address",
          "name": "account",
          "type": "address"
        }
      ],
      "name": "OwnableUnauthorizedAccount",
      "type": "error"
    },
    {
      "anonymous": false,
      "inputs": [
        {
          "indexed": true,
          "internalType": "address",
          "name": "owner",
          "type": "address"
        },
        {
          "indexed": true,
          "internalType": "address",
          "name": "approved",
          "type": "address"
        },
        {
          "indexed": true,
          "internalType": "uint256",
          "name": "tokenId",
          "type": "uint256"
        }
      ],
      "name": "Approval",
      "type": "event"
    },
    {
      "anonymous": false,
      "inputs": [
        {
          "indexed": true,
          "internalType": "address",
          "name": "owner",
          "type": "address"
        },
        {
          "indexed": true,
          "internalType": "address",
          "name": "operator",
          "type": "address"
        },
        {
          "indexed": false,
          "internalType": "bool",
          "name": "approved",
          "type": "bool"
        }
      ],
      "name": "ApprovalForAll",
      "type": "event"
    },
    {
      "anonymous": false,
      "inputs": [
        {
          "indexed": false,
          "internalType": "uint256",
          "name": "_fromTokenId",
          "type": "uint256"
        },
        {
          "indexed": false,
          "internalType": "uint256",
          "name": "_toTokenId",
          "type": "uint256"
        }
      ],
      "name": "BatchMetadataUpdate",
      "type": "event"
    },
    {
      "anonymous": false,
      "inputs": [
        {
          "indexed": false,
          "internalType": "uint256",
          "name": "_tokenId",
          "type": "uint256"
        }
      ],
      "name": "MetadataUpdate",
      "type": "event"
    },
    {
      "anonymous": false,
      "inputs": [
        {
          "indexed": true,
          "internalType": "address",
          "name": "previousOwner",
          "type": "address"
        },
        {
          "indexed": true,
          "internalType": "address",
          "name": "newOwner",
          "type": "address"
        }
      ],
      "name": "OwnershipTransferred",
      "type": "event"
    },
    {
      "anonymous": false,
      "inputs": [
        {
          "indexed": true,
          "internalType": "address",
          "name": "from",
          "type": "address"
        },
        {
          "indexed": true,
          "internalType": "address",
          "name": "to",
          "type": "address"
        },
        {
          "indexed": true,
          "internalType": "uint256",
          "name": "tokenId",
          "type": "uint256"
        }
      ],
      "name": "Transfer",
      "type": "event"
    },
    {
      "inputs": [
        {
          "internalType": "address",
          "name": "to",
          "type": "address"
        },
        {
          "internalType": "uint256",
          "name": "tokenId",
          "type": "uint256"
        }
      ],
      "name": "approve",
      "outputs": [],
      "stateMutability": "nonpayable",
      "type": "function"
    },
    {
      "inputs": [
        {
          "internalType": "address",
          "name": "owner",
          "type": "address"
        }
      ],
      "name": "balanceOf",
      "outputs": [
        {
          "internalType": "uint256",
          "name": "",
          "type": "uint256"
        }
      ],
      "stateMutability": "view",
      "type": "function"
    },
    {
      "inputs": [
        {
          "internalType": "uint256",
          "name": "",
          "type": "uint256"
        }
      ],
      "name": "credits",
      "outputs": [
        {
          "internalType": "bool",
          "name": "used",
          "type": "bool"
        },
        {
          "internalType": "string",
          "name": "usedOn",
          "type": "string"
        }
      ],
      "stateMutability": "view",
      "type": "function"
    },
    {
      "inputs": [
        {
          "internalType": "uint256",
          "name": "tokenId",
          "type": "uint256"
        }
      ],
      "name": "getApproved",
      "outputs": [
        {
          "internalType": "address",
          "name": "",
          "type": "address"
        }
      ],
      "stateMutability": "view",
      "type": "function"
    },
    {
      "inputs": [
        {
          "internalType": "address",
          "name": "owner",
          "type": "address"
        },
        {
          "internalType": "address",
          "name": "operator",
          "type": "address"
        }
      ],
      "name": "isApprovedForAll",
      "outputs": [
        {
          "internalType": "bool",
          "name": "",
          "type": "bool"
        }
      ],
      "stateMutability": "view",
      "type": "function"
    },
    {
      "inputs": [
        {
          "internalType": "uint256",
          "name": "tokenId",
          "type": "uint256"
        }
      ],
      "name": "isUsed",
      "outputs": [
        {
          "internalType": "bool",
          "name": "",
          "type": "bool"
        }
      ],
      "stateMutability": "view",
      "type": "function"
    },
    {
      "inputs": [
        {
          "internalType": "address",
          "name": "to",
          "type": "address"
        },
        {
          "internalType": "uint256",
          "name": "tokenId",
          "type": "uint256"
        },
        {
          "internalType": "string",
          "name": "tokenURI",
          "type": "string"
        }
      ],
      "name": "mintCarbonCredit",
      "outputs": [],
      "stateMutability": "nonpayable",
      "type": "function"
    },
    {
      "inputs": [
        {
          "internalType": "address",
          "name": "to",
          "type": "address"
        },
        {
          "internalType": "uint256",
          "name": "numberOfCredits",
          "type": "uint256"
        },
        {
          "internalType": "string",
          "name": "baseTokenURI",
          "type": "string"
        }
      ],
      "name": "mintCarbonCreditsBatch",
      "outputs": [],
      "stateMutability": "nonpayable",
      "type": "function"
    },
    {
      "inputs": [],
      "name": "name",
      "outputs": [
        {
          "internalType": "string",
          "name": "",
          "type": "string"
        }
      ],
      "stateMutability": "view",
      "type": "function"
    },
    {
      "inputs": [],
      "name": "nextTokenId",
      "outputs": [
        {
          "internalType": "uint256",
          "name": "",
          "type": "uint256"
        }
      ],
      "stateMutability": "view",
      "type": "function"
    },
    {
      "inputs": [],
      "name": "owner",
      "outputs": [
        {
          "internalType": "address",
          "name": "",
          "type": "address"
        }
      ],
      "stateMutability": "view",
      "type": "function"
    },
    {
      "inputs": [
        {
          "internalType": "uint256",
          "name": "tokenId",
          "type": "uint256"
        }
      ],
      "name": "ownerOf",
      "outputs": [
        {
          "internalType": "address",
          "name": "",
          "type": "address"
        }
      ],
      "stateMutability": "view",
      "type": "function"
    },
    {
      "inputs": [
        {
          "internalType": "uint256",
          "name": "tokenId",
          "type": "uint256"
        },
        {
          "internalType": "string",
          "name": "emissionId",
          "type": "string"
        }
      ],
      "name": "redeemCarbonCredit",
      "outputs": [],
      "stateMutability": "nonpayable",
      "type": "function"
    },
    {
      "inputs": [],
      "name": "renounceOwnership",
      "outputs": [],
      "stateMutability": "nonpayable",
      "type": "function"
    },
    {
      "inputs": [
        {
          "internalType": "address",
          "name": "from",
          "type": "address"
        },
        {
          "internalType": "address",
          "name": "to",
          "type": "address"
        },
        {
          "internalType": "uint256",
          "name": "tokenId",
          "type": "uint256"
        }
      ],
      "name": "safeTransferFrom",
      "outputs": [],
      "stateMutability": "nonpayable",
      "type": "function"
    },
    {
      "inputs": [
        {
          "internalType": "address",
          "name": "from",
          "type": "address"
        },
        {
          "internalType": "address",
          "name": "to",
          "type": "address"
        },
        {
          "internalType": "uint256",
          "name": "tokenId",
          "type": "uint256"
        },
        {
          "internalType": "bytes",
          "name": "data",
          "type": "bytes"
        }
      ],
      "name": "safeTransferFrom",
      "outputs": [],
      "stateMutability": "nonpayable",
      "type": "function"
    },
    {
      "inputs": [
        {
          "internalType": "address",
          "name": "operator",
          "type": "address"
        },
        {
          "internalType": "bool",
          "name": "approved",
          "type": "bool"
        }
      ],
      "name": "setApprovalForAll",
      "outputs": [],
      "stateMutability": "nonpayable",
      "type": "function"
    },
    {
      "inputs": [
        {
          "internalType": "bytes4",
          "name": "interfaceId",
          "type": "bytes4"
        }
      ],
      "name": "supportsInterface",
      "outputs": [
        {
          "internalType": "bool",
          "name": "",
          "type": "bool"
        }
      ],
      "stateMutability": "view",
      "type": "function"
    },
    {
      "inputs": [],
      "name": "symbol",
      "outputs": [
        {
          "internalType": "string",
          "name": "",
          "type": "string"
        }
      ],
      "stateMutability": "view",
      "type": "function"
    },
    {
      "inputs": [
        {
          "internalType": "uint256",
          "name": "tokenId",
          "type": "uint256"
        }
      ],
      "name": "tokenURI",
      "outputs": [
        {
          "internalType": "string",
          "name": "",
          "type": "string"
        }
      ],
      "stateMutability": "view",
      "type": "function"
    },
    {
      "inputs": [
        {
          "internalType": "address",
          "name": "from",
          "type": "address"
        },
        {
          "internalType": "address",
          "name": "to",
          "type": "address"
        },
        {
          "internalType": "uint256",
          "name": "tokenId",
          "type": "uint256"
        }
      ],
      "name": "transferFrom",
      "outputs": [],
      "stateMutability": "nonpayable",
      "type": "function"
    },
    {
      "inputs": [
        {
          "internalType": "address",
          "name": "newOwner",
          "type": "address"
        }
      ],
      "name": "transferOwnership",
      "outputs": [],
      "stateMutability": "nonpayable",
      "type": "function"
    },
    {
      "inputs": [
        {
          "internalType": "uint256",
          "name": "tokenId",
          "type": "uint256"
        }
      ],
      "name": "usedOnDetails",
      "outputs": [
        {
          "internalType": "string",
          "name": "",
          "type": "string"
        }
      ],
      "stateMutability": "view",
      "type": "function"
    }
  ],
  "bytecode": "0x608060405234801561001057600080fd5b506040516134a63803806134a68339818101604052810190610032919061027a565b806040518060400160405280600c81526020017f436172626f6e43726564697400000000000000000000000000000000000000008152506040518060400160405280600681526020017f435245444954000000000000000000000000000000000000000000000000000081525081600090816100ae91906104f7565b5080600190816100be91906104f7565b505050600073ffffffffffffffffffffffffffffffffffffffff168173ffffffffffffffffffffffffffffffffffffffff16036101335760006040517f1e4fbdf700000000000000000000000000000000000000000000000000000000815260040161012a91906105d8565b60405180910390fd5b6101428161015160201b60201c565b506001600981905550506105f3565b6000600760009054906101000a900473ffffffffffffffffffffffffffffffffffffffff16905081600760006101000a81548173ffffffffffffffffffffffffffffffffffffffff021916908373ffffffffffffffffffffffffffffffffffffffff1602179055508173ffffffffffffffffffffffffffffffffffffffff168173ffffffffffffffffffffffffffffffffffffffff167f8be0079c531659141344cd1fd0a4f28419497f9722a3daafe3b4186f6b6457e060405160405180910390a35050565b600080fd5b600073ffffffffffffffffffffffffffffffffffffffff82169050919050565b60006102478261021c565b9050919050565b6102578161023c565b811461026257600080fd5b50565b6000815190506102748161024e565b92915050565b6000602082840312156102905761028f610217565b5b600061029e84828501610265565b91505092915050565b600081519050919050565b7f4e487b7100000000000000000000000000000000000000000000000000000000600052604160045260246000fd5b7f4e487b7100000000000000000000000000000000000000000000000000000000600052602260045260246000fd5b6000600282049050600182168061032857607f821691505b60208210810361033b5761033a6102e1565b5b50919050565b60008190508160005260206000209050919050565b60006020601f8301049050919050565b600082821b905092915050565b6000600883026103a37fffffffffffffffffffffffffffffffffffffffffffffffffffffffffffffffff82610366565b6103ad8683610366565b95508019841693508086168417925050509392505050565b6000819050919050565b6000819050919050565b60006103f46103ef6103ea846103c5565b6103cf565b6103c5565b9050919050565b6000819050919050565b61040e836103d9565b61042261041a826103fb565b848454610373565b825550505050565b600090565b61043761042a565b610442818484610405565b505050565b5b818110156104665761045b60008261042f565b600181019050610448565b5050565b601f8211156104ab5761047c81610341565b61048584610356565b81016020851015610494578190505b6104a86104a085610356565b830182610447565b50505b505050565b600082821c905092915050565b60006104ce600019846008026104b0565b1980831691505092915050565b60006104e783836104bd565b9150826002028217905092915050565b610500826102a7565b67ffffffffffffffff811115610519576105186102b2565b5b6105238254610310565b61052e82828561046a565b600060209050601f831160018114610561576000841561054f578287015190505b61055985826104db565b8655506105c1565b601f19841661056f86610341565b60005b8281101561059757848901518255600182019150602085019450602081019050610572565b868310156105b457848901516105b0601f8916826104bd565b8355505b6001600288020188555050505b505050505050565b6105d28161023c565b82525050565b60006020820190506105ed60008301846105c9565b92915050565b612ea4806106026000396000f3fe608060405234801561001057600080fd5b506004361061014d5760003560e01c806370a08231116100c3578063a22cb4651161007c578063a22cb4651461039d578063b88d4fde146103b9578063c87b56dd146103d5578063e985e9c514610405578063eba8b58914610435578063f2fde38b146104655761014d565b806370a08231146102ed578063715018a61461031d57806375794a3c146103275780638da5cb5b146103455780638eb61eb31461036357806395d89b411461037f5761014d565b806323b872dd1161011557806323b872dd1461021d578063336ccba51461023957806342842e0e146102695780635268bc63146102855780636352211e146102a157806369e01585146102d15761014d565b806301ffc9a714610152578063036a1c221461018257806306fdde03146101b3578063081812fc146101d1578063095ea7b314610201575b600080fd5b61016c6004803603810190610167919061201c565b610481565b6040516101799190612064565b60405180910390f35b61019c600480360381019061019791906120b5565b6104e2565b6040516101aa929190612172565b60405180910390f35b6101bb61059b565b6040516101c891906121a2565b60405180910390f35b6101eb60048036038101906101e691906120b5565b61062d565b6040516101f89190612205565b60405180910390f35b61021b6004803603810190610216919061224c565b610649565b005b6102376004803603810190610232919061228c565b61065f565b005b610253600480360381019061024e91906120b5565b610761565b6040516102609190612064565b60405180910390f35b610283600480360381019061027e919061228c565b61078e565b005b61029f600480360381019061029a9190612344565b6107ae565b005b6102bb60048036038101906102b691906120b5565b610844565b6040516102c89190612205565b60405180910390f35b6102eb60048036038101906102e691906123b8565b610856565b005b61030760048036038101906103029190612418565b61098a565b6040516103149190612454565b60405180910390f35b610325610a44565b005b61032f610a58565b60405161033c9190612454565b60405180910390f35b61034d610a5e565b60405161035a9190612205565b60405180910390f35b61037d60048036038101906103789190612344565b610a88565b005b610387610abf565b60405161039491906121a2565b60405180910390f35b6103b760048036038101906103b2919061249b565b610b51565b005b6103d360048036038101906103ce919061260b565b610b67565b005b6103ef60048036038101906103ea91906120b5565b610b8c565b6040516103fc91906121a2565b60405180910390f35b61041f600480360381019061041a919061268e565b610c9f565b60405161042c9190612064565b60405180910390f35b61044f600480360381019061044a91906120b5565b610d33565b60405161045c91906121a2565b60405180910390f35b61047f600480360381019061047a9190612418565b610ddb565b005b6000634906490660e01b7bffffffffffffffffffffffffffffffffffffffffffffffffffffffff1916827bffffffffffffffffffffffffffffffffffffffffffffffffffffffff191614806104db57506104da82610e61565b5b9050919050565b60086020528060005260406000206000915090508060000160009054906101000a900460ff1690806001018054610518906126fd565b80601f0160208091040260200160405190810160405280929190818152602001828054610544906126fd565b80156105915780601f1061056657610100808354040283529160200191610591565b820191906000526020600020905b81548152906001019060200180831161057457829003601f168201915b5050505050905082565b6060600080546105aa906126fd565b80601f01602080910402602001604051908101604052809291908181526020018280546105d6906126fd565b80156106235780601f106105f857610100808354040283529160200191610623565b820191906000526020600020905b81548152906001019060200180831161060657829003601f168201915b5050505050905090565b600061063882610f43565b5061064282610fcb565b9050919050565b61065b8282610656611008565b611010565b5050565b600073ffffffffffffffffffffffffffffffffffffffff168273ffffffffffffffffffffffffffffffffffffffff16036106d15760006040517f64a0ae920000000000000000000000000000000000000000000000000000000081526004016106c89190612205565b60405180910390fd5b60006106e583836106e0611008565b611022565b90508373ffffffffffffffffffffffffffffffffffffffff168173ffffffffffffffffffffffffffffffffffffffff161461075b578382826040517f64283d7b0000000000000000000000000000000000000000000000000000000081526004016107529392919061272e565b60405180910390fd5b50505050565b60006008600083815260200190815260200160002060000160009054906101000a900460ff169050919050565b6107a983838360405180602001604052806000815250610b67565b505050565b6107b661123c565b600083116107f9576040517f08c379a00000000000000000000000000000000000000000000000000000000081526004016107f0906127b1565b60405180910390fd5b60005b8381101561083d5760006009549050610817868286866112c3565b6009600081548092919061082a90612800565b91905055505080806001019150506107fc565b5050505050565b600061084f82610f43565b9050919050565b3373ffffffffffffffffffffffffffffffffffffffff1661087684610844565b73ffffffffffffffffffffffffffffffffffffffff16146108cc576040517f08c379a00000000000000000000000000000000000000000000000000000000081526004016108c3906128ba565b60405180910390fd5b6008600084815260200190815260200160002060000160009054906101000a900460ff1615610930576040517f08c379a000000000000000000000000000000000000000000000000000000000815260040161092790612926565b60405180910390fd5b60016008600085815260200190815260200160002060000160006101000a81548160ff0219169083151502179055508181600860008681526020019081526020016000206001019182610984929190612afd565b50505050565b60008073ffffffffffffffffffffffffffffffffffffffff168273ffffffffffffffffffffffffffffffffffffffff16036109fd5760006040517f89c62b640000000000000000000000000000000000000000000000000000000081526004016109f49190612205565b60405180910390fd5b600360008373ffffffffffffffffffffffffffffffffffffffff1673ffffffffffffffffffffffffffffffffffffffff168152602001908152602001600020549050919050565b610a4c61123c565b610a5660006113a1565b565b60095481565b6000600760009054906101000a900473ffffffffffffffffffffffffffffffffffffffff16905090565b610a9061123c565b610a9c848484846112c3565b6009548310610ab957600183610ab29190612bcd565b6009819055505b50505050565b606060018054610ace906126fd565b80601f0160208091040260200160405190810160405280929190818152602001828054610afa906126fd565b8015610b475780601f10610b1c57610100808354040283529160200191610b47565b820191906000526020600020905b815481529060010190602001808311610b2a57829003601f168201915b5050505050905090565b610b63610b5c611008565b8383611467565b5050565b610b7284848461065f565b610b86610b7d611008565b858585856115d6565b50505050565b6060610b9782610f43565b506000600660008481526020019081526020016000208054610bb8906126fd565b80601f0160208091040260200160405190810160405280929190818152602001828054610be4906126fd565b8015610c315780601f10610c0657610100808354040283529160200191610c31565b820191906000526020600020905b815481529060010190602001808311610c1457829003601f168201915b505050505090506000610c42611787565b90506000815103610c57578192505050610c9a565b600082511115610c8c578082604051602001610c74929190612c3d565b60405160208183030381529060405292505050610c9a565b610c958461179e565b925050505b919050565b6000600560008473ffffffffffffffffffffffffffffffffffffffff1673ffffffffffffffffffffffffffffffffffffffff16815260200190815260200160002060008373ffffffffffffffffffffffffffffffffffffffff1673ffffffffffffffffffffffffffffffffffffffff16815260200190815260200160002060009054906101000a900460ff16905092915050565b6060600860008381526020019081526020016000206001018054610d56906126fd565b80601f0160208091040260200160405190810160405280929190818152602001828054610d82906126fd565b8015610dcf5780601f10610da457610100808354040283529160200191610dcf565b820191906000526020600020905b815481529060010190602001808311610db257829003601f168201915b50505050509050919050565b610de361123c565b600073ffffffffffffffffffffffffffffffffffffffff168173ffffffffffffffffffffffffffffffffffffffff1603610e555760006040517f1e4fbdf7000000000000000000000000000000000000000000000000000000008152600401610e4c9190612205565b60405180910390fd5b610e5e816113a1565b50565b60007f80ac58cd000000000000000000000000000000000000000000000000000000007bffffffffffffffffffffffffffffffffffffffffffffffffffffffff1916827bffffffffffffffffffffffffffffffffffffffffffffffffffffffff19161480610f2c57507f5b5e139f000000000000000000000000000000000000000000000000000000007bffffffffffffffffffffffffffffffffffffffffffffffffffffffff1916827bffffffffffffffffffffffffffffffffffffffffffffffffffffffff1916145b80610f3c5750610f3b82611807565b5b9050919050565b600080610f4f83611871565b9050600073ffffffffffffffffffffffffffffffffffffffff168173ffffffffffffffffffffffffffffffffffffffff1603610fc257826040517f7e273289000000000000000000000000000000000000000000000000000000008152600401610fb99190612454565b60405180910390fd5b80915050919050565b60006004600083815260200190815260200160002060009054906101000a900473ffffffffffffffffffffffffffffffffffffffff169050919050565b600033905090565b61101d83838360016118ae565b505050565b60008061102e84611871565b9050600073ffffffffffffffffffffffffffffffffffffffff168373ffffffffffffffffffffffffffffffffffffffff16146110705761106f818486611a73565b5b600073ffffffffffffffffffffffffffffffffffffffff168173ffffffffffffffffffffffffffffffffffffffff1614611101576110b26000856000806118ae565b6001600360008373ffffffffffffffffffffffffffffffffffffffff1673ffffffffffffffffffffffffffffffffffffffff168152602001908152602001600020600082825403925050819055505b600073ffffffffffffffffffffffffffffffffffffffff168573ffffffffffffffffffffffffffffffffffffffff1614611184576001600360008773ffffffffffffffffffffffffffffffffffffffff1673ffffffffffffffffffffffffffffffffffffffff168152602001908152602001600020600082825401925050819055505b846002600086815260200190815260200160002060006101000a81548173ffffffffffffffffffffffffffffffffffffffff021916908373ffffffffffffffffffffffffffffffffffffffff160217905550838573ffffffffffffffffffffffffffffffffffffffff168273ffffffffffffffffffffffffffffffffffffffff167fddf252ad1be2c89b69c2b068fc378daa952ba7f163c4a11628f55a4df523b3ef60405160405180910390a4809150509392505050565b611244611008565b73ffffffffffffffffffffffffffffffffffffffff16611262610a5e565b73ffffffffffffffffffffffffffffffffffffffff16146112c157611285611008565b6040517f118cdaa70000000000000000000000000000000000000000000000000000000081526004016112b89190612205565b60405180910390fd5b565b6112cd8484611b37565b6000828290501115611328576113278383838080601f016020809104026020016040519081016040528093929190818152602001838380828437600081840152601f19601f82011690508083019250505050505050611b55565b5b6040518060400160405280600015158152602001604051806020016040528060008152508152506008600085815260200190815260200160002060008201518160000160006101000a81548160ff02191690831515021790555060208201518160010190816113979190612c61565b5090505050505050565b6000600760009054906101000a900473ffffffffffffffffffffffffffffffffffffffff16905081600760006101000a81548173ffffffffffffffffffffffffffffffffffffffff021916908373ffffffffffffffffffffffffffffffffffffffff1602179055508173ffffffffffffffffffffffffffffffffffffffff168173ffffffffffffffffffffffffffffffffffffffff167f8be0079c531659141344cd1fd0a4f28419497f9722a3daafe3b4186f6b6457e060405160405180910390a35050565b600073ffffffffffffffffffffffffffffffffffffffff168273ffffffffffffffffffffffffffffffffffffffff16036114d857816040517f5b08ba180000000000000000000000000000000000000000000000000000000081526004016114cf9190612205565b60405180910390fd5b80600560008573ffffffffffffffffffffffffffffffffffffffff1673ffffffffffffffffffffffffffffffffffffffff16815260200190815260200160002060008473ffffffffffffffffffffffffffffffffffffffff1673ffffffffffffffffffffffffffffffffffffffff16815260200190815260200160002060006101000a81548160ff0219169083151502179055508173ffffffffffffffffffffffffffffffffffffffff168373ffffffffffffffffffffffffffffffffffffffff167f17307eab39ab6107e8899845ad3d59bd9653f200f220920489ca2b5937696c31836040516115c99190612064565b60405180910390a3505050565b60008373ffffffffffffffffffffffffffffffffffffffff163b1115611780578273ffffffffffffffffffffffffffffffffffffffff1663150b7a02868685856040518563ffffffff1660e01b81526004016116359493929190612d88565b6020604051808303816000875af192505050801561167157506040513d601f19601f8201168201806040525081019061166e9190612de9565b60015b6116f5573d80600081146116a1576040519150601f19603f3d011682016040523d82523d6000602084013e6116a6565b606091505b5060008151036116ed57836040517f64a0ae920000000000000000000000000000000000000000000000000000000081526004016116e49190612205565b60405180910390fd5b805181602001fd5b63150b7a0260e01b7bffffffffffffffffffffffffffffffffffffffffffffffffffffffff1916817bffffffffffffffffffffffffffffffffffffffffffffffffffffffff19161461177e57836040517f64a0ae920000000000000000000000000000000000000000000000000000000081526004016117759190612205565b60405180910390fd5b505b5050505050565b606060405180602001604052806000815250905090565b60606117a982610f43565b5060006117b4611787565b905060008151116117d457604051806020016040528060008152506117ff565b806117de84611bb1565b6040516020016117ef929190612c3d565b6040516020818303038152906040525b915050919050565b60007f01ffc9a7000000000000000000000000000000000000000000000000000000007bffffffffffffffffffffffffffffffffffffffffffffffffffffffff1916827bffffffffffffffffffffffffffffffffffffffffffffffffffffffff1916149050919050565b60006002600083815260200190815260200160002060009054906101000a900473ffffffffffffffffffffffffffffffffffffffff169050919050565b80806118e75750600073ffffffffffffffffffffffffffffffffffffffff168273ffffffffffffffffffffffffffffffffffffffff1614155b15611a1b5760006118f784610f43565b9050600073ffffffffffffffffffffffffffffffffffffffff168373ffffffffffffffffffffffffffffffffffffffff161415801561196257508273ffffffffffffffffffffffffffffffffffffffff168173ffffffffffffffffffffffffffffffffffffffff1614155b801561197557506119738184610c9f565b155b156119b757826040517fa9fbf51f0000000000000000000000000000000000000000000000000000000081526004016119ae9190612205565b60405180910390fd5b8115611a1957838573ffffffffffffffffffffffffffffffffffffffff168273ffffffffffffffffffffffffffffffffffffffff167f8c5be1e5ebec7d5bd14f71427d1e84f3dd0314c0f7b2291e5b200ac8c7c3b92560405160405180910390a45b505b836004600085815260200190815260200160002060006101000a81548173ffffffffffffffffffffffffffffffffffffffff021916908373ffffffffffffffffffffffffffffffffffffffff16021790555050505050565b611a7e838383611c7f565b611b3257600073ffffffffffffffffffffffffffffffffffffffff168373ffffffffffffffffffffffffffffffffffffffff1603611af357806040517f7e273289000000000000000000000000000000000000000000000000000000008152600401611aea9190612454565b60405180910390fd5b81816040517f177e802f000000000000000000000000000000000000000000000000000000008152600401611b29929190612e16565b60405180910390fd5b505050565b611b51828260405180602001604052806000815250611d40565b5050565b80600660008481526020019081526020016000209081611b759190612c61565b507ff8e1a15aba9398e019f0b49df1a4fde98ee17ae345cb5f6b5e2c27f5033e8ce782604051611ba59190612454565b60405180910390a15050565b606060006001611bc084611d64565b01905060008167ffffffffffffffff811115611bdf57611bde6124e0565b5b6040519080825280601f01601f191660200182016040528015611c115781602001600182028036833780820191505090505b509050600082602001820190505b600115611c74578080600190039150507f3031323334353637383961626364656600000000000000000000000000000000600a86061a8153600a8581611c6857611c67612e3f565b5b04945060008503611c1f575b819350505050919050565b60008073ffffffffffffffffffffffffffffffffffffffff168373ffffffffffffffffffffffffffffffffffffffff1614158015611d3757508273ffffffffffffffffffffffffffffffffffffffff168473ffffffffffffffffffffffffffffffffffffffff161480611cf85750611cf78484610c9f565b5b80611d3657508273ffffffffffffffffffffffffffffffffffffffff16611d1e83610fcb565b73ffffffffffffffffffffffffffffffffffffffff16145b5b90509392505050565b611d4a8383611eb7565b611d5f611d55611008565b60008585856115d6565b505050565b600080600090507a184f03e93ff9f4daa797ed6e38ed64bf6a1f0100000000000000008310611dc2577a184f03e93ff9f4daa797ed6e38ed64bf6a1f0100000000000000008381611db857611db7612e3f565b5b0492506040810190505b6d04ee2d6d415b85acef81000000008310611dff576d04ee2d6d415b85acef81000000008381611df557611df4612e3f565b5b0492506020810190505b662386f26fc100008310611e2e57662386f26fc100008381611e2457611e23612e3f565b5b0492506010810190505b6305f5e1008310611e57576305f5e1008381611e4d57611e4c612e3f565b5b0492506008810190505b6127108310611e7c576127108381611e7257611e71612e3f565b5b0492506004810190505b60648310611e9f5760648381611e9557611e94612e3f565b5b0492506002810190505b600a8310611eae576001810190505b80915050919050565b600073ffffffffffffffffffffffffffffffffffffffff168273ffffffffffffffffffffffffffffffffffffffff1603611f295760006040517f64a0ae92000000000000000000000000000000000000000000000000000000008152600401611f209190612205565b60405180910390fd5b6000611f3783836000611022565b9050600073ffffffffffffffffffffffffffffffffffffffff168173ffffffffffffffffffffffffffffffffffffffff1614611fab5760006040517f73c6ac6e000000000000000000000000000000000000000000000000000000008152600401611fa29190612205565b60405180910390fd5b505050565b6000604051905090565b600080fd5b600080fd5b60007fffffffff0000000000000000000000000000000000000000000000000000000082169050919050565b611ff981611fc4565b811461200457600080fd5b50565b60008135905061201681611ff0565b92915050565b60006020828403121561203257612031611fba565b5b600061204084828501612007565b91505092915050565b60008115159050919050565b61205e81612049565b82525050565b60006020820190506120796000830184612055565b92915050565b6000819050919050565b6120928161207f565b811461209d57600080fd5b50565b6000813590506120af81612089565b92915050565b6000602082840312156120cb576120ca611fba565b5b60006120d9848285016120a0565b91505092915050565b600081519050919050565b600082825260208201905092915050565b60005b8381101561211c578082015181840152602081019050612101565b60008484015250505050565b6000601f19601f8301169050919050565b6000612144826120e2565b61214e81856120ed565b935061215e8185602086016120fe565b61216781612128565b840191505092915050565b60006040820190506121876000830185612055565b81810360208301526121998184612139565b90509392505050565b600060208201905081810360008301526121bc8184612139565b905092915050565b600073ffffffffffffffffffffffffffffffffffffffff82169050919050565b60006121ef826121c4565b9050919050565b6121ff816121e4565b82525050565b600060208201905061221a60008301846121f6565b92915050565b612229816121e4565b811461223457600080fd5b50565b60008135905061224681612220565b92915050565b6000806040838503121561226357612262611fba565b5b600061227185828601612237565b9250506020612282858286016120a0565b9150509250929050565b6000806000606084860312156122a5576122a4611fba565b5b60006122b386828701612237565b93505060206122c486828701612237565b92505060406122d5868287016120a0565b9150509250925092565b600080fd5b600080fd5b600080fd5b60008083601f840112612304576123036122df565b5b8235905067ffffffffffffffff811115612321576123206122e4565b5b60208301915083600182028301111561233d5761233c6122e9565b5b9250929050565b6000806000806060858703121561235e5761235d611fba565b5b600061236c87828801612237565b945050602061237d878288016120a0565b935050604085013567ffffffffffffffff81111561239e5761239d611fbf565b5b6123aa878288016122ee565b925092505092959194509250565b6000806000604084860312156123d1576123d0611fba565b5b60006123df868287016120a0565b935050602084013567ffffffffffffffff811115612400576123ff611fbf565b5b61240c868287016122ee565b92509250509250925092565b60006020828403121561242e5761242d611fba565b5b600061243c84828501612237565b91505092915050565b61244e8161207f565b82525050565b60006020820190506124696000830184612445565b92915050565b61247881612049565b811461248357600080fd5b50565b6000813590506124958161246f565b92915050565b600080604083850312156124b2576124b1611fba565b5b60006124c085828601612237565b92505060206124d185828601612486565b9150509250929050565b600080fd5b7f4e487b7100000000000000000000000000000000000000000000000000000000600052604160045260246000fd5b61251882612128565b810181811067ffffffffffffffff82111715612537576125366124e0565b5b80604052505050565b600061254a611fb0565b9050612556828261250f565b919050565b600067ffffffffffffffff821115612576576125756124e0565b5b61257f82612128565b9050602081019050919050565b82818337600083830152505050565b60006125ae6125a98461255b565b612540565b9050828152602081018484840111156125ca576125c96124db565b5b6125d584828561258c565b509392505050565b600082601f8301126125f2576125f16122df565b5b813561260284826020860161259b565b91505092915050565b6000806000806080858703121561262557612624611fba565b5b600061263387828801612237565b945050602061264487828801612237565b9350506040612655878288016120a0565b925050606085013567ffffffffffffffff81111561267657612675611fbf565b5b612682878288016125dd565b91505092959194509250565b600080604083850312156126a5576126a4611fba565b5b60006126b385828601612237565b92505060206126c485828601612237565b9150509250929050565b7f4e487b7100000000000000000000000000000000000000000000000000000000600052602260045260246000fd5b6000600282049050600182168061271557607f821691505b602082108103612728576127276126ce565b5b50919050565b600060608201905061274360008301866121f6565b6127506020830185612445565b61275d60408301846121f6565b949350505050565b7f4e756d626572206f662063726564697473206d757374206265203e2030000000600082015250565b600061279b601d836120ed565b91506127a682612765565b602082019050919050565b600060208201905081810360008301526127ca8161278e565b9050919050565b7f4e487b7100000000000000000000000000000000000000000000000000000000600052601160045260246000fd5b600061280b8261207f565b91507fffffffffffffffffffffffffffffffffffffffffffffffffffffffffffffffff820361283d5761283c6127d1565b5b600182019050919050565b7f43616c6c6572206973206e6f7420746865206f776e6572206f6620746869732060008201527f6372656469740000000000000000000000000000000000000000000000000000602082015250565b60006128a46026836120ed565b91506128af82612848565b604082019050919050565b600060208201905081810360008301526128d381612897565b9050919050565b7f436172626f6e2063726564697420616c72656164792075736564000000000000600082015250565b6000612910601a836120ed565b915061291b826128da565b602082019050919050565b6000602082019050818103600083015261293f81612903565b9050919050565b600082905092915050565b60008190508160005260206000209050919050565b60006020601f8301049050919050565b600082821b905092915050565b6000600883026129b37fffffffffffffffffffffffffffffffffffffffffffffffffffffffffffffffff82612976565b6129bd8683612976565b95508019841693508086168417925050509392505050565b6000819050919050565b60006129fa6129f56129f08461207f565b6129d5565b61207f565b9050919050565b6000819050919050565b612a14836129df565b612a28612a2082612a01565b848454612983565b825550505050565b600090565b612a3d612a30565b612a48818484612a0b565b505050565b5b81811015612a6c57612a61600082612a35565b600181019050612a4e565b5050565b601f821115612ab157612a8281612951565b612a8b84612966565b81016020851015612a9a578190505b612aae612aa685612966565b830182612a4d565b50505b505050565b600082821c905092915050565b6000612ad460001984600802612ab6565b1980831691505092915050565b6000612aed8383612ac3565b9150826002028217905092915050565b612b078383612946565b67ffffffffffffffff811115612b2057612b1f6124e0565b5b612b2a82546126fd565b612b35828285612a70565b6000601f831160018114612b645760008415612b52578287013590505b612b5c8582612ae1565b865550612bc4565b601f198416612b7286612951565b60005b82811015612b9a57848901358255600182019150602085019450602081019050612b75565b86831015612bb75784890135612bb3601f891682612ac3565b8355505b6001600288020188555050505b50505050505050565b6000612bd88261207f565b9150612be38361207f565b9250828201905080821115612bfb57612bfa6127d1565b5b92915050565b600081905092915050565b6000612c17826120e2565b612c218185612c01565b9350612c318185602086016120fe565b80840191505092915050565b6000612c498285612c0c565b9150612c558284612c0c565b91508190509392505050565b612c6a826120e2565b67ffffffffffffffff811115612c8357612c826124e0565b5b612c8d82546126fd565b612c98828285612a70565b600060209050601f831160018114612ccb5760008415612cb9578287015190505b612cc38582612ae1565b865550612d2b565b601f198416612cd986612951565b60005b82811015612d0157848901518255600182019150602085019450602081019050612cdc565b86831015612d1e5784890151612d1a601f891682612ac3565b8355505b6001600288020188555050505b505050505050565b600081519050919050565b600082825260208201905092915050565b6000612d5a82612d33565b612d648185612d3e565b9350612d748185602086016120fe565b612d7d81612128565b840191505092915050565b6000608082019050612d9d60008301876121f6565b612daa60208301866121f6565b612db76040830185612445565b8181036060830152612dc98184612d4f565b905095945050505050565b600081519050612de381611ff0565b92915050565b600060208284031215612dff57612dfe611fba565b5b6000612e0d84828501612dd4565b91505092915050565b6000604082019050612e2b60008301856121f6565b612e386020830184612445565b9392505050565b7f4e487b7100000000000000000000000000000000000000000000000000000000600052601260045260246000fdfea2646970667358221220834ac4ab72ffd1aefd8db65b8677a280b28b9a0733bb6475f036d5183e79c5e864736f6c634300081c0033",
  "linkReferences": {},
  "deployedLinkReferences": {}
}