{
  "_format": "hh-sol-artifact-1",
  "contractName": "CarbonCredit",
  "sourceName": "contracts/CarbonCredit.sol",
  "abi": [
    {
      "inputs": [
        {
          "internalType": "address",
          "name": "initialOwner",
          "type": "address"
        }
      ],
      "stateMutability": "nonpayable",
      "type": "constructor"
    },
    {
      "inputs": [
        {
          "internalType": "address",
          "name": "sender",
          "type": "address"
        },
        {
          "internalType": "uint256",
          "name": "tokenId",
          "type": "uint256"
        },
        {
          "internalType": "address",
          "name": "owner",
          "type": "address"
        }
      ],
      "name": "ERC721IncorrectOwner",
      "type": "error"
    },
    {
      "inputs": [
        {
          "internalType": "address",
          "name": "operator",
          "type": "address"
        },
        {
          "internalType": "uint256",
          "name": "tokenId",
          "type": "uint256"
        }
      ],
      "name": "ERC721InsufficientApproval",
      "type": "error"
    },
    {
      "inputs": [
        {
          "internalType": "address",
          "name": "approver",
          "type": "address"
        }
      ],
      "name": "ERC721InvalidApprover",
      "type": "error"
    },
    {
      "inputs": [
        {
          "internalType": "address",
          "name": "operator",
          "type": "address"
        }
      ],
      "name": "ERC721InvalidOperator",
      "type": "error"
    },
    {
      "inputs": [
        {
          "internalType": "address",
          "name": "owner",
          "type": "address"
        }
      ],
      "name": "ERC721InvalidOwner",
      "type": "error"
    },
    {
      "inputs": [
        {
          "internalType": "address",
          "name": "receiver",
          "type": "address"
        }
      ],
      "name": "ERC721InvalidReceiver",
      "type": "error"
    },
    {
      "inputs": [
        {
          "internalType": "address",
          "name": "sender",
          "type": "address"
        }
      ],
      "name": "ERC721InvalidSender",
      "type": "error"
    },
    {
      "inputs": [
        {
          "internalType": "uint256",
          "name": "tokenId",
          "type": "uint256"
        }
      ],
      "name": "ERC721NonexistentToken",
      "type": "error"
    },
    {
      "inputs": [
        {
          "internalType": "address",
          "name": "owner",
          "type": "address"
        }
      ],
      "name": "OwnableInvalidOwner",
      "type": "error"
    },
    {
      "inputs": [
        {
          "internalType": "address",
          "name": "account",
          "type": "address"
        }
      ],
      "name": "OwnableUnauthorizedAccount",
      "type": "error"
    },
    {
      "anonymous": false,
      "inputs": [
        {
          "indexed": true,
          "internalType": "address",
          "name": "owner",
          "type": "address"
        },
        {
          "indexed": true,
          "internalType": "address",
          "name": "approved",
          "type": "address"
        },
        {
          "indexed": true,
          "internalType": "uint256",
          "name": "tokenId",
          "type": "uint256"
        }
      ],
      "name": "Approval",
      "type": "event"
    },
    {
      "anonymous": false,
      "inputs": [
        {
          "indexed": true,
          "internalType": "address",
          "name": "owner",
          "type": "address"
        },
        {
          "indexed": true,
          "internalType": "address",
          "name": "operator",
          "type": "address"
        },
        {
          "indexed": false,
          "internalType": "bool",
          "name": "approved",
          "type": "bool"
        }
      ],
      "name": "ApprovalForAll",
      "type": "event"
    },
    {
      "anonymous": false,
      "inputs": [
        {
          "indexed": false,
          "internalType": "uint256",
          "name": "_fromTokenId",
          "type": "uint256"
        },
        {
          "indexed": false,
          "internalType": "uint256",
          "name": "_toTokenId",
          "type": "uint256"
        }
      ],
      "name": "BatchMetadataUpdate",
      "type": "event"
    },
    {
      "anonymous": false,
      "inputs": [
        {
          "indexed": false,
          "internalType": "uint256",
          "name": "_tokenId",
          "type": "uint256"
        }
      ],
      "name": "MetadataUpdate",
      "type": "event"
    },
    {
      "anonymous": false,
      "inputs": [
        {
          "indexed": true,
          "internalType": "address",
          "name": "previousOwner",
          "type": "address"
        },
        {
          "indexed": true,
          "internalType": "address",
          "name": "newOwner",
          "type": "address"
        }
      ],
      "name": "OwnershipTransferred",
      "type": "event"
    },
    {
      "anonymous": false,
      "inputs": [
        {
          "indexed": true,
          "internalType": "address",
          "name": "from",
          "type": "address"
        },
        {
          "indexed": true,
          "internalType": "address",
          "name": "to",
          "type": "address"
        },
        {
          "indexed": true,
          "internalType": "uint256",
          "name": "tokenId",
          "type": "uint256"
        }
      ],
      "name": "Transfer",
      "type": "event"
    },
    {
      "inputs": [
        {
          "internalType": "address",
          "name": "to",
          "type": "address"
        },
        {
          "internalType": "uint256",
          "name": "tokenId",
          "type": "uint256"
        }
      ],
      "name": "approve",
      "outputs": [],
      "stateMutability": "nonpayable",
      "type": "function"
    },
    {
      "inputs": [
        {
          "internalType": "address",
          "name": "owner",
          "type": "address"
        }
      ],
      "name": "balanceOf",
      "outputs": [
        {
          "internalType": "uint256",
          "name": "",
          "type": "uint256"
        }
      ],
      "stateMutability": "view",
      "type": "function"
    },
    {
      "inputs": [
        {
          "internalType": "uint256",
          "name": "",
          "type": "uint256"
        }
      ],
      "name": "credits",
      "outputs": [
        {
          "internalType": "bool",
          "name": "used",
          "type": "bool"
        },
        {
          "internalType": "string",
          "name": "usedOn",
          "type": "string"
        }
      ],
      "stateMutability": "view",
      "type": "function"
    },
    {
      "inputs": [
        {
          "internalType": "uint256",
          "name": "tokenId",
          "type": "uint256"
        }
      ],
      "name": "getApproved",
      "outputs": [
        {
          "internalType": "address",
          "name": "",
          "type": "address"
        }
      ],
      "stateMutability": "view",
      "type": "function"
    },
    {
      "inputs": [
        {
          "internalType": "address",
          "name": "marketplaceAddress",
          "type": "address"
        }
      ],
      "name": "getTokenIdsInMarketplace",
      "outputs": [
        {
          "internalType": "uint256[]",
          "name": "",
          "type": "uint256[]"
        }
      ],
      "stateMutability": "view",
      "type": "function"
    },
    {
      "inputs": [
        {
          "internalType": "address",
          "name": "_owner",
          "type": "address"
        }
      ],
      "name": "getTokenIdsOfOwner",
      "outputs": [
        {
          "internalType": "uint256[]",
          "name": "",
          "type": "uint256[]"
        }
      ],
      "stateMutability": "view",
      "type": "function"
    },
    {
      "inputs": [
        {
          "internalType": "address",
          "name": "owner",
          "type": "address"
        },
        {
          "internalType": "address",
          "name": "operator",
          "type": "address"
        }
      ],
      "name": "isApprovedForAll",
      "outputs": [
        {
          "internalType": "bool",
          "name": "",
          "type": "bool"
        }
      ],
      "stateMutability": "view",
      "type": "function"
    },
    {
      "inputs": [
        {
          "internalType": "uint256",
          "name": "tokenId",
          "type": "uint256"
        }
      ],
      "name": "isUsed",
      "outputs": [
        {
          "internalType": "bool",
          "name": "",
          "type": "bool"
        }
      ],
      "stateMutability": "view",
      "type": "function"
    },
    {
      "inputs": [
        {
          "internalType": "address",
          "name": "to",
          "type": "address"
        },
        {
          "internalType": "uint256",
          "name": "tokenId",
          "type": "uint256"
        },
        {
          "internalType": "string",
          "name": "tokenURI",
          "type": "string"
        }
      ],
      "name": "mintCarbonCredit",
      "outputs": [],
      "stateMutability": "nonpayable",
      "type": "function"
    },
    {
      "inputs": [
        {
          "internalType": "address",
          "name": "to",
          "type": "address"
        },
        {
          "internalType": "uint256",
          "name": "numberOfCredits",
          "type": "uint256"
        },
        {
          "internalType": "string",
          "name": "baseTokenURI",
          "type": "string"
        }
      ],
      "name": "mintCarbonCreditsBatch",
      "outputs": [],
      "stateMutability": "nonpayable",
      "type": "function"
    },
    {
      "inputs": [],
      "name": "name",
      "outputs": [
        {
          "internalType": "string",
          "name": "",
          "type": "string"
        }
      ],
      "stateMutability": "view",
      "type": "function"
    },
    {
      "inputs": [],
      "name": "nextTokenId",
      "outputs": [
        {
          "internalType": "uint256",
          "name": "",
          "type": "uint256"
        }
      ],
      "stateMutability": "view",
      "type": "function"
    },
    {
      "inputs": [],
      "name": "owner",
      "outputs": [
        {
          "internalType": "address",
          "name": "",
          "type": "address"
        }
      ],
      "stateMutability": "view",
      "type": "function"
    },
    {
      "inputs": [
        {
          "internalType": "uint256",
          "name": "tokenId",
          "type": "uint256"
        }
      ],
      "name": "ownerOf",
      "outputs": [
        {
          "internalType": "address",
          "name": "",
          "type": "address"
        }
      ],
      "stateMutability": "view",
      "type": "function"
    },
    {
      "inputs": [
        {
          "internalType": "uint256",
          "name": "tokenId",
          "type": "uint256"
        },
        {
          "internalType": "string",
          "name": "emissionId",
          "type": "string"
        }
      ],
      "name": "redeemCarbonCredit",
      "outputs": [],
      "stateMutability": "nonpayable",
      "type": "function"
    },
    {
      "inputs": [],
      "name": "renounceOwnership",
      "outputs": [],
      "stateMutability": "nonpayable",
      "type": "function"
    },
    {
      "inputs": [
        {
          "internalType": "address",
          "name": "from",
          "type": "address"
        },
        {
          "internalType": "address",
          "name": "to",
          "type": "address"
        },
        {
          "internalType": "uint256",
          "name": "tokenId",
          "type": "uint256"
        }
      ],
      "name": "safeTransferFrom",
      "outputs": [],
      "stateMutability": "nonpayable",
      "type": "function"
    },
    {
      "inputs": [
        {
          "internalType": "address",
          "name": "from",
          "type": "address"
        },
        {
          "internalType": "address",
          "name": "to",
          "type": "address"
        },
        {
          "internalType": "uint256",
          "name": "tokenId",
          "type": "uint256"
        },
        {
          "internalType": "bytes",
          "name": "data",
          "type": "bytes"
        }
      ],
      "name": "safeTransferFrom",
      "outputs": [],
      "stateMutability": "nonpayable",
      "type": "function"
    },
    {
      "inputs": [
        {
          "internalType": "address",
          "name": "operator",
          "type": "address"
        },
        {
          "internalType": "bool",
          "name": "approved",
          "type": "bool"
        }
      ],
      "name": "setApprovalForAll",
      "outputs": [],
      "stateMutability": "nonpayable",
      "type": "function"
    },
    {
      "inputs": [
        {
          "internalType": "bytes4",
          "name": "interfaceId",
          "type": "bytes4"
        }
      ],
      "name": "supportsInterface",
      "outputs": [
        {
          "internalType": "bool",
          "name": "",
          "type": "bool"
        }
      ],
      "stateMutability": "view",
      "type": "function"
    },
    {
      "inputs": [],
      "name": "symbol",
      "outputs": [
        {
          "internalType": "string",
          "name": "",
          "type": "string"
        }
      ],
      "stateMutability": "view",
      "type": "function"
    },
    {
      "inputs": [
        {
          "internalType": "uint256",
          "name": "tokenId",
          "type": "uint256"
        }
      ],
      "name": "tokenURI",
      "outputs": [
        {
          "internalType": "string",
          "name": "",
          "type": "string"
        }
      ],
      "stateMutability": "view",
      "type": "function"
    },
    {
      "inputs": [
        {
          "internalType": "address",
          "name": "from",
          "type": "address"
        },
        {
          "internalType": "address",
          "name": "to",
          "type": "address"
        },
        {
          "internalType": "uint256",
          "name": "tokenId",
          "type": "uint256"
        }
      ],
      "name": "transferFrom",
      "outputs": [],
      "stateMutability": "nonpayable",
      "type": "function"
    },
    {
      "inputs": [
        {
          "internalType": "address",
          "name": "newOwner",
          "type": "address"
        }
      ],
      "name": "transferOwnership",
      "outputs": [],
      "stateMutability": "nonpayable",
      "type": "function"
    },
    {
      "inputs": [
        {
          "internalType": "uint256",
          "name": "tokenId",
          "type": "uint256"
        }
      ],
      "name": "usedOnDetails",
      "outputs": [
        {
          "internalType": "string",
          "name": "",
          "type": "string"
        }
      ],
      "stateMutability": "view",
      "type": "function"
    }
  ],
  "bytecode": "0x608060405234801561001057600080fd5b506040516138dd3803806138dd8339818101604052810190610032919061027a565b806040518060400160405280600c81526020017f436172626f6e43726564697400000000000000000000000000000000000000008152506040518060400160405280600681526020017f435245444954000000000000000000000000000000000000000000000000000081525081600090816100ae91906104f7565b5080600190816100be91906104f7565b505050600073ffffffffffffffffffffffffffffffffffffffff168173ffffffffffffffffffffffffffffffffffffffff16036101335760006040517f1e4fbdf700000000000000000000000000000000000000000000000000000000815260040161012a91906105d8565b60405180910390fd5b6101428161015160201b60201c565b506001600981905550506105f3565b6000600760009054906101000a900473ffffffffffffffffffffffffffffffffffffffff16905081600760006101000a81548173ffffffffffffffffffffffffffffffffffffffff021916908373ffffffffffffffffffffffffffffffffffffffff1602179055508173ffffffffffffffffffffffffffffffffffffffff168173ffffffffffffffffffffffffffffffffffffffff167f8be0079c531659141344cd1fd0a4f28419497f9722a3daafe3b4186f6b6457e060405160405180910390a35050565b600080fd5b600073ffffffffffffffffffffffffffffffffffffffff82169050919050565b60006102478261021c565b9050919050565b6102578161023c565b811461026257600080fd5b50565b6000815190506102748161024e565b92915050565b6000602082840312156102905761028f610217565b5b600061029e84828501610265565b91505092915050565b600081519050919050565b7f4e487b7100000000000000000000000000000000000000000000000000000000600052604160045260246000fd5b7f4e487b7100000000000000000000000000000000000000000000000000000000600052602260045260246000fd5b6000600282049050600182168061032857607f821691505b60208210810361033b5761033a6102e1565b5b50919050565b60008190508160005260206000209050919050565b60006020601f8301049050919050565b600082821b905092915050565b6000600883026103a37fffffffffffffffffffffffffffffffffffffffffffffffffffffffffffffffff82610366565b6103ad8683610366565b95508019841693508086168417925050509392505050565b6000819050919050565b6000819050919050565b60006103f46103ef6103ea846103c5565b6103cf565b6103c5565b9050919050565b6000819050919050565b61040e836103d9565b61042261041a826103fb565b848454610373565b825550505050565b600090565b61043761042a565b610442818484610405565b505050565b5b818110156104665761045b60008261042f565b600181019050610448565b5050565b601f8211156104ab5761047c81610341565b61048584610356565b81016020851015610494578190505b6104a86104a085610356565b830182610447565b50505b505050565b600082821c905092915050565b60006104ce600019846008026104b0565b1980831691505092915050565b60006104e783836104bd565b9150826002028217905092915050565b610500826102a7565b67ffffffffffffffff811115610519576105186102b2565b5b6105238254610310565b61052e82828561046a565b600060209050601f831160018114610561576000841561054f578287015190505b61055985826104db565b8655506105c1565b601f19841661056f86610341565b60005b8281101561059757848901518255600182019150602085019450602081019050610572565b868310156105b457848901516105b0601f8916826104bd565b8355505b6001600288020188555050505b505050505050565b6105d28161023c565b82525050565b60006020820190506105ed60008301846105c9565b92915050565b6132db806106026000396000f3fe608060405234801561001057600080fd5b50600436106101735760003560e01c806370a08231116100de578063a22cb46511610097578063e985e9c511610071578063e985e9c51461045b578063eba8b5891461048b578063f2fde38b146104bb578063f52f1d4d146104d757610173565b8063a22cb465146103f3578063b88d4fde1461040f578063c87b56dd1461042b57610173565b806370a0823114610343578063715018a61461037357806375794a3c1461037d5780638da5cb5b1461039b5780638eb61eb3146103b957806395d89b41146103d557610173565b806323b872dd1161013057806323b872dd14610273578063336ccba51461028f57806342842e0e146102bf5780635268bc63146102db5780636352211e146102f757806369e015851461032757610173565b806301ffc9a714610178578063036a1c22146101a857806306fdde03146101d9578063081812fc146101f757806308a5d0ad14610227578063095ea7b314610257575b600080fd5b610192600480360381019061018d9190612223565b610507565b60405161019f919061226b565b60405180910390f35b6101c260048036038101906101bd91906122bc565b610568565b6040516101d0929190612379565b60405180910390f35b6101e1610621565b6040516101ee91906123a9565b60405180910390f35b610211600480360381019061020c91906122bc565b6106b3565b60405161021e919061240c565b60405180910390f35b610241600480360381019061023c9190612453565b6106cf565b60405161024e919061253e565b60405180910390f35b610271600480360381019061026c9190612560565b6107c8565b005b61028d600480360381019061028891906125a0565b6107de565b005b6102a960048036038101906102a491906122bc565b6108e0565b6040516102b6919061226b565b60405180910390f35b6102d960048036038101906102d491906125a0565b61090d565b005b6102f560048036038101906102f09190612658565b61092d565b005b610311600480360381019061030c91906122bc565b6109c3565b60405161031e919061240c565b60405180910390f35b610341600480360381019061033c91906126cc565b6109d5565b005b61035d60048036038101906103589190612453565b610b09565b60405161036a919061273b565b60405180910390f35b61037b610bc3565b005b610385610bd7565b604051610392919061273b565b60405180910390f35b6103a3610bdd565b6040516103b0919061240c565b60405180910390f35b6103d360048036038101906103ce9190612658565b610c07565b005b6103dd610c3e565b6040516103ea91906123a9565b60405180910390f35b61040d60048036038101906104089190612782565b610cd0565b005b610429600480360381019061042491906128f2565b610ce6565b005b610445600480360381019061044091906122bc565b610d0b565b60405161045291906123a9565b60405180910390f35b61047560048036038101906104709190612975565b610e1e565b604051610482919061226b565b60405180910390f35b6104a560048036038101906104a091906122bc565b610eb2565b6040516104b291906123a9565b60405180910390f35b6104d560048036038101906104d09190612453565b610f5a565b005b6104f160048036038101906104ec9190612453565b610fe0565b6040516104fe919061253e565b60405180910390f35b6000634906490660e01b7bffffffffffffffffffffffffffffffffffffffffffffffffffffffff1916827bffffffffffffffffffffffffffffffffffffffffffffffffffffffff19161480610561575061056082611068565b5b9050919050565b60086020528060005260406000206000915090508060000160009054906101000a900460ff169080600101805461059e906129e4565b80601f01602080910402602001604051908101604052809291908181526020018280546105ca906129e4565b80156106175780601f106105ec57610100808354040283529160200191610617565b820191906000526020600020905b8154815290600101906020018083116105fa57829003601f168201915b5050505050905082565b606060008054610630906129e4565b80601f016020809104026020016040519081016040528092919081815260200182805461065c906129e4565b80156106a95780601f1061067e576101008083540402835291602001916106a9565b820191906000526020600020905b81548152906001019060200180831161068c57829003601f168201915b5050505050905090565b60006106be8261114a565b506106c8826111d2565b9050919050565b606060006106dc83610b09565b905060008167ffffffffffffffff8111156106fa576106f96127c7565b5b6040519080825280602002602001820160405280156107285781602001602082028036833780820191505090505b509050600080600190505b6009548110156107bc578573ffffffffffffffffffffffffffffffffffffffff1661075d826109c3565b73ffffffffffffffffffffffffffffffffffffffff16036107af578083838151811061078c5761078b612a15565b5b60200260200101818152505081806107a390612a73565b925050838203156107bc575b8080600101915050610733565b50819350505050919050565b6107da82826107d561120f565b611217565b5050565b600073ffffffffffffffffffffffffffffffffffffffff168273ffffffffffffffffffffffffffffffffffffffff16036108505760006040517f64a0ae92000000000000000000000000000000000000000000000000000000008152600401610847919061240c565b60405180910390fd5b6000610864838361085f61120f565b611229565b90508373ffffffffffffffffffffffffffffffffffffffff168173ffffffffffffffffffffffffffffffffffffffff16146108da578382826040517f64283d7b0000000000000000000000000000000000000000000000000000000081526004016108d193929190612abb565b60405180910390fd5b50505050565b60006008600083815260200190815260200160002060000160009054906101000a900460ff169050919050565b61092883838360405180602001604052806000815250610ce6565b505050565b610935611443565b60008311610978576040517f08c379a000000000000000000000000000000000000000000000000000000000815260040161096f90612b3e565b60405180910390fd5b60005b838110156109bc5760006009549050610996868286866114ca565b600960008154809291906109a990612a73565b919050555050808060010191505061097b565b5050505050565b60006109ce8261114a565b9050919050565b3373ffffffffffffffffffffffffffffffffffffffff166109f5846109c3565b73ffffffffffffffffffffffffffffffffffffffff1614610a4b576040517f08c379a0000000000000000000000000000000000000000000000000000000008152600401610a4290612bd0565b60405180910390fd5b6008600084815260200190815260200160002060000160009054906101000a900460ff1615610aaf576040517f08c379a0000000000000000000000000000000000000000000000000000000008152600401610aa690612c3c565b60405180910390fd5b60016008600085815260200190815260200160002060000160006101000a81548160ff0219169083151502179055508181600860008681526020019081526020016000206001019182610b03929190612e13565b50505050565b60008073ffffffffffffffffffffffffffffffffffffffff168273ffffffffffffffffffffffffffffffffffffffff1603610b7c5760006040517f89c62b64000000000000000000000000000000000000000000000000000000008152600401610b73919061240c565b60405180910390fd5b600360008373ffffffffffffffffffffffffffffffffffffffff1673ffffffffffffffffffffffffffffffffffffffff168152602001908152602001600020549050919050565b610bcb611443565b610bd560006115a8565b565b60095481565b6000600760009054906101000a900473ffffffffffffffffffffffffffffffffffffffff16905090565b610c0f611443565b610c1b848484846114ca565b6009548310610c3857600183610c319190612ee3565b6009819055505b50505050565b606060018054610c4d906129e4565b80601f0160208091040260200160405190810160405280929190818152602001828054610c79906129e4565b8015610cc65780601f10610c9b57610100808354040283529160200191610cc6565b820191906000526020600020905b815481529060010190602001808311610ca957829003601f168201915b5050505050905090565b610ce2610cdb61120f565b838361166e565b5050565b610cf18484846107de565b610d05610cfc61120f565b858585856117dd565b50505050565b6060610d168261114a565b506000600660008481526020019081526020016000208054610d37906129e4565b80601f0160208091040260200160405190810160405280929190818152602001828054610d63906129e4565b8015610db05780601f10610d8557610100808354040283529160200191610db0565b820191906000526020600020905b815481529060010190602001808311610d9357829003601f168201915b505050505090506000610dc161198e565b90506000815103610dd6578192505050610e19565b600082511115610e0b578082604051602001610df3929190612f53565b60405160208183030381529060405292505050610e19565b610e14846119a5565b925050505b919050565b6000600560008473ffffffffffffffffffffffffffffffffffffffff1673ffffffffffffffffffffffffffffffffffffffff16815260200190815260200160002060008373ffffffffffffffffffffffffffffffffffffffff1673ffffffffffffffffffffffffffffffffffffffff16815260200190815260200160002060009054906101000a900460ff16905092915050565b6060600860008381526020019081526020016000206001018054610ed5906129e4565b80601f0160208091040260200160405190810160405280929190818152602001828054610f01906129e4565b8015610f4e5780601f10610f2357610100808354040283529160200191610f4e565b820191906000526020600020905b815481529060010190602001808311610f3157829003601f168201915b50505050509050919050565b610f62611443565b600073ffffffffffffffffffffffffffffffffffffffff168173ffffffffffffffffffffffffffffffffffffffff1603610fd45760006040517f1e4fbdf7000000000000000000000000000000000000000000000000000000008152600401610fcb919061240c565b60405180910390fd5b610fdd816115a8565b50565b60603073ffffffffffffffffffffffffffffffffffffffff166308a5d0ad836040518263ffffffff1660e01b815260040161101b919061240c565b600060405180830381865afa158015611038573d6000803e3d6000fd5b505050506040513d6000823e3d601f19601f82011682018060405250810190611061919061304f565b9050919050565b60007f80ac58cd000000000000000000000000000000000000000000000000000000007bffffffffffffffffffffffffffffffffffffffffffffffffffffffff1916827bffffffffffffffffffffffffffffffffffffffffffffffffffffffff1916148061113357507f5b5e139f000000000000000000000000000000000000000000000000000000007bffffffffffffffffffffffffffffffffffffffffffffffffffffffff1916827bffffffffffffffffffffffffffffffffffffffffffffffffffffffff1916145b80611143575061114282611a0e565b5b9050919050565b60008061115683611a78565b9050600073ffffffffffffffffffffffffffffffffffffffff168173ffffffffffffffffffffffffffffffffffffffff16036111c957826040517f7e2732890000000000000000000000000000000000000000000000000000000081526004016111c0919061273b565b60405180910390fd5b80915050919050565b60006004600083815260200190815260200160002060009054906101000a900473ffffffffffffffffffffffffffffffffffffffff169050919050565b600033905090565b6112248383836001611ab5565b505050565b60008061123584611a78565b9050600073ffffffffffffffffffffffffffffffffffffffff168373ffffffffffffffffffffffffffffffffffffffff161461127757611276818486611c7a565b5b600073ffffffffffffffffffffffffffffffffffffffff168173ffffffffffffffffffffffffffffffffffffffff1614611308576112b9600085600080611ab5565b6001600360008373ffffffffffffffffffffffffffffffffffffffff1673ffffffffffffffffffffffffffffffffffffffff168152602001908152602001600020600082825403925050819055505b600073ffffffffffffffffffffffffffffffffffffffff168573ffffffffffffffffffffffffffffffffffffffff161461138b576001600360008773ffffffffffffffffffffffffffffffffffffffff1673ffffffffffffffffffffffffffffffffffffffff168152602001908152602001600020600082825401925050819055505b846002600086815260200190815260200160002060006101000a81548173ffffffffffffffffffffffffffffffffffffffff021916908373ffffffffffffffffffffffffffffffffffffffff160217905550838573ffffffffffffffffffffffffffffffffffffffff168273ffffffffffffffffffffffffffffffffffffffff167fddf252ad1be2c89b69c2b068fc378daa952ba7f163c4a11628f55a4df523b3ef60405160405180910390a4809150509392505050565b61144b61120f565b73ffffffffffffffffffffffffffffffffffffffff16611469610bdd565b73ffffffffffffffffffffffffffffffffffffffff16146114c85761148c61120f565b6040517f118cdaa70000000000000000000000000000000000000000000000000000000081526004016114bf919061240c565b60405180910390fd5b565b6114d48484611d3e565b600082829050111561152f5761152e8383838080601f016020809104026020016040519081016040528093929190818152602001838380828437600081840152601f19601f82011690508083019250505050505050611d5c565b5b6040518060400160405280600015158152602001604051806020016040528060008152508152506008600085815260200190815260200160002060008201518160000160006101000a81548160ff021916908315150217905550602082015181600101908161159e9190613098565b5090505050505050565b6000600760009054906101000a900473ffffffffffffffffffffffffffffffffffffffff16905081600760006101000a81548173ffffffffffffffffffffffffffffffffffffffff021916908373ffffffffffffffffffffffffffffffffffffffff1602179055508173ffffffffffffffffffffffffffffffffffffffff168173ffffffffffffffffffffffffffffffffffffffff167f8be0079c531659141344cd1fd0a4f28419497f9722a3daafe3b4186f6b6457e060405160405180910390a35050565b600073ffffffffffffffffffffffffffffffffffffffff168273ffffffffffffffffffffffffffffffffffffffff16036116df57816040517f5b08ba180000000000000000000000000000000000000000000000000000000081526004016116d6919061240c565b60405180910390fd5b80600560008573ffffffffffffffffffffffffffffffffffffffff1673ffffffffffffffffffffffffffffffffffffffff16815260200190815260200160002060008473ffffffffffffffffffffffffffffffffffffffff1673ffffffffffffffffffffffffffffffffffffffff16815260200190815260200160002060006101000a81548160ff0219169083151502179055508173ffffffffffffffffffffffffffffffffffffffff168373ffffffffffffffffffffffffffffffffffffffff167f17307eab39ab6107e8899845ad3d59bd9653f200f220920489ca2b5937696c31836040516117d0919061226b565b60405180910390a3505050565b60008373ffffffffffffffffffffffffffffffffffffffff163b1115611987578273ffffffffffffffffffffffffffffffffffffffff1663150b7a02868685856040518563ffffffff1660e01b815260040161183c94939291906131bf565b6020604051808303816000875af192505050801561187857506040513d601f19601f820116820180604052508101906118759190613220565b60015b6118fc573d80600081146118a8576040519150601f19603f3d011682016040523d82523d6000602084013e6118ad565b606091505b5060008151036118f457836040517f64a0ae920000000000000000000000000000000000000000000000000000000081526004016118eb919061240c565b60405180910390fd5b805181602001fd5b63150b7a0260e01b7bffffffffffffffffffffffffffffffffffffffffffffffffffffffff1916817bffffffffffffffffffffffffffffffffffffffffffffffffffffffff19161461198557836040517f64a0ae9200000000000000000000000000000000000000000000000000000000815260040161197c919061240c565b60405180910390fd5b505b5050505050565b606060405180602001604052806000815250905090565b60606119b08261114a565b5060006119bb61198e565b905060008151116119db5760405180602001604052806000815250611a06565b806119e584611db8565b6040516020016119f6929190612f53565b6040516020818303038152906040525b915050919050565b60007f01ffc9a7000000000000000000000000000000000000000000000000000000007bffffffffffffffffffffffffffffffffffffffffffffffffffffffff1916827bffffffffffffffffffffffffffffffffffffffffffffffffffffffff1916149050919050565b60006002600083815260200190815260200160002060009054906101000a900473ffffffffffffffffffffffffffffffffffffffff169050919050565b8080611aee5750600073ffffffffffffffffffffffffffffffffffffffff168273ffffffffffffffffffffffffffffffffffffffff1614155b15611c22576000611afe8461114a565b9050600073ffffffffffffffffffffffffffffffffffffffff168373ffffffffffffffffffffffffffffffffffffffff1614158015611b6957508273ffffffffffffffffffffffffffffffffffffffff168173ffffffffffffffffffffffffffffffffffffffff1614155b8015611b7c5750611b7a8184610e1e565b155b15611bbe57826040517fa9fbf51f000000000000000000000000000000000000000000000000000000008152600401611bb5919061240c565b60405180910390fd5b8115611c2057838573ffffffffffffffffffffffffffffffffffffffff168273ffffffffffffffffffffffffffffffffffffffff167f8c5be1e5ebec7d5bd14f71427d1e84f3dd0314c0f7b2291e5b200ac8c7c3b92560405160405180910390a45b505b836004600085815260200190815260200160002060006101000a81548173ffffffffffffffffffffffffffffffffffffffff021916908373ffffffffffffffffffffffffffffffffffffffff16021790555050505050565b611c85838383611e86565b611d3957600073ffffffffffffffffffffffffffffffffffffffff168373ffffffffffffffffffffffffffffffffffffffff1603611cfa57806040517f7e273289000000000000000000000000000000000000000000000000000000008152600401611cf1919061273b565b60405180910390fd5b81816040517f177e802f000000000000000000000000000000000000000000000000000000008152600401611d3092919061324d565b60405180910390fd5b505050565b611d58828260405180602001604052806000815250611f47565b5050565b80600660008481526020019081526020016000209081611d7c9190613098565b507ff8e1a15aba9398e019f0b49df1a4fde98ee17ae345cb5f6b5e2c27f5033e8ce782604051611dac919061273b565b60405180910390a15050565b606060006001611dc784611f6b565b01905060008167ffffffffffffffff811115611de657611de56127c7565b5b6040519080825280601f01601f191660200182016040528015611e185781602001600182028036833780820191505090505b509050600082602001820190505b600115611e7b578080600190039150507f3031323334353637383961626364656600000000000000000000000000000000600a86061a8153600a8581611e6f57611e6e613276565b5b04945060008503611e26575b819350505050919050565b60008073ffffffffffffffffffffffffffffffffffffffff168373ffffffffffffffffffffffffffffffffffffffff1614158015611f3e57508273ffffffffffffffffffffffffffffffffffffffff168473ffffffffffffffffffffffffffffffffffffffff161480611eff5750611efe8484610e1e565b5b80611f3d57508273ffffffffffffffffffffffffffffffffffffffff16611f25836111d2565b73ffffffffffffffffffffffffffffffffffffffff16145b5b90509392505050565b611f5183836120be565b611f66611f5c61120f565b60008585856117dd565b505050565b600080600090507a184f03e93ff9f4daa797ed6e38ed64bf6a1f0100000000000000008310611fc9577a184f03e93ff9f4daa797ed6e38ed64bf6a1f0100000000000000008381611fbf57611fbe613276565b5b0492506040810190505b6d04ee2d6d415b85acef81000000008310612006576d04ee2d6d415b85acef81000000008381611ffc57611ffb613276565b5b0492506020810190505b662386f26fc10000831061203557662386f26fc10000838161202b5761202a613276565b5b0492506010810190505b6305f5e100831061205e576305f5e100838161205457612053613276565b5b0492506008810190505b612710831061208357612710838161207957612078613276565b5b0492506004810190505b606483106120a6576064838161209c5761209b613276565b5b0492506002810190505b600a83106120b5576001810190505b80915050919050565b600073ffffffffffffffffffffffffffffffffffffffff168273ffffffffffffffffffffffffffffffffffffffff16036121305760006040517f64a0ae92000000000000000000000000000000000000000000000000000000008152600401612127919061240c565b60405180910390fd5b600061213e83836000611229565b9050600073ffffffffffffffffffffffffffffffffffffffff168173ffffffffffffffffffffffffffffffffffffffff16146121b25760006040517f73c6ac6e0000000000000000000000000000000000000000000000000000000081526004016121a9919061240c565b60405180910390fd5b505050565b6000604051905090565b600080fd5b600080fd5b60007fffffffff0000000000000000000000000000000000000000000000000000000082169050919050565b612200816121cb565b811461220b57600080fd5b50565b60008135905061221d816121f7565b92915050565b600060208284031215612239576122386121c1565b5b60006122478482850161220e565b91505092915050565b60008115159050919050565b61226581612250565b82525050565b6000602082019050612280600083018461225c565b92915050565b6000819050919050565b61229981612286565b81146122a457600080fd5b50565b6000813590506122b681612290565b92915050565b6000602082840312156122d2576122d16121c1565b5b60006122e0848285016122a7565b91505092915050565b600081519050919050565b600082825260208201905092915050565b60005b83811015612323578082015181840152602081019050612308565b60008484015250505050565b6000601f19601f8301169050919050565b600061234b826122e9565b61235581856122f4565b9350612365818560208601612305565b61236e8161232f565b840191505092915050565b600060408201905061238e600083018561225c565b81810360208301526123a08184612340565b90509392505050565b600060208201905081810360008301526123c38184612340565b905092915050565b600073ffffffffffffffffffffffffffffffffffffffff82169050919050565b60006123f6826123cb565b9050919050565b612406816123eb565b82525050565b600060208201905061242160008301846123fd565b92915050565b612430816123eb565b811461243b57600080fd5b50565b60008135905061244d81612427565b92915050565b600060208284031215612469576124686121c1565b5b60006124778482850161243e565b91505092915050565b600081519050919050565b600082825260208201905092915050565b6000819050602082019050919050565b6124b581612286565b82525050565b60006124c783836124ac565b60208301905092915050565b6000602082019050919050565b60006124eb82612480565b6124f5818561248b565b93506125008361249c565b8060005b8381101561253157815161251888826124bb565b9750612523836124d3565b925050600181019050612504565b5085935050505092915050565b6000602082019050818103600083015261255881846124e0565b905092915050565b60008060408385031215612577576125766121c1565b5b60006125858582860161243e565b9250506020612596858286016122a7565b9150509250929050565b6000806000606084860312156125b9576125b86121c1565b5b60006125c78682870161243e565b93505060206125d88682870161243e565b92505060406125e9868287016122a7565b9150509250925092565b600080fd5b600080fd5b600080fd5b60008083601f840112612618576126176125f3565b5b8235905067ffffffffffffffff811115612635576126346125f8565b5b602083019150836001820283011115612651576126506125fd565b5b9250929050565b60008060008060608587031215612672576126716121c1565b5b60006126808782880161243e565b9450506020612691878288016122a7565b935050604085013567ffffffffffffffff8111156126b2576126b16121c6565b5b6126be87828801612602565b925092505092959194509250565b6000806000604084860312156126e5576126e46121c1565b5b60006126f3868287016122a7565b935050602084013567ffffffffffffffff811115612714576127136121c6565b5b61272086828701612602565b92509250509250925092565b61273581612286565b82525050565b6000602082019050612750600083018461272c565b92915050565b61275f81612250565b811461276a57600080fd5b50565b60008135905061277c81612756565b92915050565b60008060408385031215612799576127986121c1565b5b60006127a78582860161243e565b92505060206127b88582860161276d565b9150509250929050565b600080fd5b7f4e487b7100000000000000000000000000000000000000000000000000000000600052604160045260246000fd5b6127ff8261232f565b810181811067ffffffffffffffff8211171561281e5761281d6127c7565b5b80604052505050565b60006128316121b7565b905061283d82826127f6565b919050565b600067ffffffffffffffff82111561285d5761285c6127c7565b5b6128668261232f565b9050602081019050919050565b82818337600083830152505050565b600061289561289084612842565b612827565b9050828152602081018484840111156128b1576128b06127c2565b5b6128bc848285612873565b509392505050565b600082601f8301126128d9576128d86125f3565b5b81356128e9848260208601612882565b91505092915050565b6000806000806080858703121561290c5761290b6121c1565b5b600061291a8782880161243e565b945050602061292b8782880161243e565b935050604061293c878288016122a7565b925050606085013567ffffffffffffffff81111561295d5761295c6121c6565b5b612969878288016128c4565b91505092959194509250565b6000806040838503121561298c5761298b6121c1565b5b600061299a8582860161243e565b92505060206129ab8582860161243e565b9150509250929050565b7f4e487b7100000000000000000000000000000000000000000000000000000000600052602260045260246000fd5b600060028204905060018216806129fc57607f821691505b602082108103612a0f57612a0e6129b5565b5b50919050565b7f4e487b7100000000000000000000000000000000000000000000000000000000600052603260045260246000fd5b7f4e487b7100000000000000000000000000000000000000000000000000000000600052601160045260246000fd5b6000612a7e82612286565b91507fffffffffffffffffffffffffffffffffffffffffffffffffffffffffffffffff8203612ab057612aaf612a44565b5b600182019050919050565b6000606082019050612ad060008301866123fd565b612add602083018561272c565b612aea60408301846123fd565b949350505050565b7f4e756d626572206f662063726564697473206d757374206265203e2030000000600082015250565b6000612b28601d836122f4565b9150612b3382612af2565b602082019050919050565b60006020820190508181036000830152612b5781612b1b565b9050919050565b7f43616c6c6572206973206e6f7420746865206f776e6572206f6620746869732060008201527f6372656469740000000000000000000000000000000000000000000000000000602082015250565b6000612bba6026836122f4565b9150612bc582612b5e565b604082019050919050565b60006020820190508181036000830152612be981612bad565b9050919050565b7f436172626f6e2063726564697420616c72656164792075736564000000000000600082015250565b6000612c26601a836122f4565b9150612c3182612bf0565b602082019050919050565b60006020820190508181036000830152612c5581612c19565b9050919050565b600082905092915050565b60008190508160005260206000209050919050565b60006020601f8301049050919050565b600082821b905092915050565b600060088302612cc97fffffffffffffffffffffffffffffffffffffffffffffffffffffffffffffffff82612c8c565b612cd38683612c8c565b95508019841693508086168417925050509392505050565b6000819050919050565b6000612d10612d0b612d0684612286565b612ceb565b612286565b9050919050565b6000819050919050565b612d2a83612cf5565b612d3e612d3682612d17565b848454612c99565b825550505050565b600090565b612d53612d46565b612d5e818484612d21565b505050565b5b81811015612d8257612d77600082612d4b565b600181019050612d64565b5050565b601f821115612dc757612d9881612c67565b612da184612c7c565b81016020851015612db0578190505b612dc4612dbc85612c7c565b830182612d63565b50505b505050565b600082821c905092915050565b6000612dea60001984600802612dcc565b1980831691505092915050565b6000612e038383612dd9565b9150826002028217905092915050565b612e1d8383612c5c565b67ffffffffffffffff811115612e3657612e356127c7565b5b612e4082546129e4565b612e4b828285612d86565b6000601f831160018114612e7a5760008415612e68578287013590505b612e728582612df7565b865550612eda565b601f198416612e8886612c67565b60005b82811015612eb057848901358255600182019150602085019450602081019050612e8b565b86831015612ecd5784890135612ec9601f891682612dd9565b8355505b6001600288020188555050505b50505050505050565b6000612eee82612286565b9150612ef983612286565b9250828201905080821115612f1157612f10612a44565b5b92915050565b600081905092915050565b6000612f2d826122e9565b612f378185612f17565b9350612f47818560208601612305565b80840191505092915050565b6000612f5f8285612f22565b9150612f6b8284612f22565b91508190509392505050565b600067ffffffffffffffff821115612f9257612f916127c7565b5b602082029050602081019050919050565b600081519050612fb281612290565b92915050565b6000612fcb612fc684612f77565b612827565b90508083825260208201905060208402830185811115612fee57612fed6125fd565b5b835b8181101561301757806130038882612fa3565b845260208401935050602081019050612ff0565b5050509392505050565b600082601f830112613036576130356125f3565b5b8151613046848260208601612fb8565b91505092915050565b600060208284031215613065576130646121c1565b5b600082015167ffffffffffffffff811115613083576130826121c6565b5b61308f84828501613021565b91505092915050565b6130a1826122e9565b67ffffffffffffffff8111156130ba576130b96127c7565b5b6130c482546129e4565b6130cf828285612d86565b600060209050601f83116001811461310257600084156130f0578287015190505b6130fa8582612df7565b865550613162565b601f19841661311086612c67565b60005b8281101561313857848901518255600182019150602085019450602081019050613113565b868310156131555784890151613151601f891682612dd9565b8355505b6001600288020188555050505b505050505050565b600081519050919050565b600082825260208201905092915050565b60006131918261316a565b61319b8185613175565b93506131ab818560208601612305565b6131b48161232f565b840191505092915050565b60006080820190506131d460008301876123fd565b6131e160208301866123fd565b6131ee604083018561272c565b81810360608301526132008184613186565b905095945050505050565b60008151905061321a816121f7565b92915050565b600060208284031215613236576132356121c1565b5b60006132448482850161320b565b91505092915050565b600060408201905061326260008301856123fd565b61326f602083018461272c565b9392505050565b7f4e487b7100000000000000000000000000000000000000000000000000000000600052601260045260246000fdfea26469706673582212205039874e0cee5ab28c5dc0ec98823df3c969f0d3cdd6170b0c77391d338e626964736f6c634300081c0033",
  "linkReferences": {},
  "deployedLinkReferences": {}
}